{
  "contractName": "Voting",
  "abi": [
    {
      "inputs": [
        {
          "internalType": "uint256",
          "name": "",
          "type": "uint256"
        }
      ],
      "name": "candidates",
      "outputs": [
        {
          "internalType": "string",
          "name": "",
          "type": "string"
        }
      ],
      "stateMutability": "view",
      "type": "function",
      "constant": true
    },
    {
      "inputs": [
        {
          "internalType": "string",
          "name": "_candidate",
          "type": "string"
        }
      ],
      "name": "voteFor",
      "outputs": [],
      "stateMutability": "nonpayable",
      "type": "function"
    },
    {
      "inputs": [
        {
          "internalType": "string",
          "name": "_candidate",
          "type": "string"
        }
      ],
      "name": "votesReceived",
      "outputs": [
        {
          "internalType": "uint8",
          "name": "",
          "type": "uint8"
        }
      ],
      "stateMutability": "view",
      "type": "function",
      "constant": true
    }
  ],
  "bytecode": "0x608060405260405180604001604052806040518060400160405280600481526020017f666564650000000000000000000000000000000000000000000000000000000081525081526020016040518060400160405280600581526020017f676f6d697800000000000000000000000000000000000000000000000000000081525081525060009060026100939291906100a6565b503480156100a057600080fd5b5061026e565b8280548282559060005260206000209081019282156100f5579160200282015b828111156100f45782518290805190602001906100e4929190610106565b50916020019190600101906100c6565b5b509050610102919061018c565b5090565b8280546101129061020d565b90600052602060002090601f016020900481019282610134576000855561017b565b82601f1061014d57805160ff191683800117855561017b565b8280016001018555821561017b579182015b8281111561017a57825182559160200191906001019061015f565b5b50905061018891906101b0565b5090565b5b808211156101ac57600081816101a391906101cd565b5060010161018d565b5090565b5b808211156101c95760008160009055506001016101b1565b5090565b5080546101d99061020d565b6000825580601f106101eb575061020a565b601f01602090049060005260206000209081019061020991906101b0565b5b50565b6000600282049050600182168061022557607f821691505b602082108114156102395761023861023f565b5b50919050565b7f4e487b7100000000000000000000000000000000000000000000000000000000600052602260045260246000fd5b6105e18061027d6000396000f3fe608060405234801561001057600080fd5b50600436106100415760003560e01c80633477ee2e146100465780638d4b44d914610076578063c04752d8146100a6575b600080fd5b610060600480360381019061005b91906102b6565b6100c2565b60405161006d919061036f565b60405180910390f35b610090600480360381019061008b9190610275565b61016e565b60405161009d9190610391565b60405180910390f35b6100c060048036038101906100bb9190610275565b6101a3565b005b600081815481106100d257600080fd5b9060005260206000200160009150905080546100ed906104c4565b80601f0160208091040260200160405190810160405280929190818152602001828054610119906104c4565b80156101665780601f1061013b57610100808354040283529160200191610166565b820191906000526020600020905b81548152906001019060200180831161014957829003601f168201915b505050505081565b60006001826040516101809190610358565b908152602001604051809103902060009054906101000a900460ff169050919050565b600180826040516101b49190610358565b908152602001604051809103902060008282829054906101000a900460ff166101dd9190610434565b92506101000a81548160ff021916908360ff16021790555050565b600061020b610206846103dd565b6103ac565b90508281526020810184848401111561022357600080fd5b61022e848285610482565b509392505050565b600082601f83011261024757600080fd5b81356102578482602086016101f8565b91505092915050565b60008135905061026f81610594565b92915050565b60006020828403121561028757600080fd5b600082013567ffffffffffffffff8111156102a157600080fd5b6102ad84828501610236565b91505092915050565b6000602082840312156102c857600080fd5b60006102d684828501610260565b91505092915050565b60006102ea8261040d565b6102f48185610418565b9350610304818560208601610491565b61030d81610583565b840191505092915050565b60006103238261040d565b61032d8185610429565b935061033d818560208601610491565b80840191505092915050565b61035281610475565b82525050565b60006103648284610318565b915081905092915050565b6000602082019050818103600083015261038981846102df565b905092915050565b60006020820190506103a66000830184610349565b92915050565b6000604051905081810181811067ffffffffffffffff821117156103d3576103d2610554565b5b8060405250919050565b600067ffffffffffffffff8211156103f8576103f7610554565b5b601f19601f8301169050602081019050919050565b600081519050919050565b600082825260208201905092915050565b600081905092915050565b600061043f82610475565b915061044a83610475565b92508260ff038211156104605761045f6104f6565b5b828201905092915050565b6000819050919050565b600060ff82169050919050565b82818337600083830152505050565b60005b838110156104af578082015181840152602081019050610494565b838111156104be576000848401525b50505050565b600060028204905060018216806104dc57607f821691505b602082108114156104f0576104ef610525565b5b50919050565b7f4e487b7100000000000000000000000000000000000000000000000000000000600052601160045260246000fd5b7f4e487b7100000000000000000000000000000000000000000000000000000000600052602260045260246000fd5b7f4e487b7100000000000000000000000000000000000000000000000000000000600052604160045260246000fd5b6000601f19601f8301169050919050565b61059d8161046b565b81146105a857600080fd5b5056fea2646970667358221220672100bbe9f6237989ae0fa3c59b990e305dcf978186d88eb642dfef3f0acd2e64736f6c63430008000033",
  "immutableReferences": {},
  "source": "// SPDX-License-Identifier: MIT\npragma solidity ^0.8.0;\n\n// Lets people store a value\ncontract Voting {\n    string[] public candidates = [\"fede\", \"gomix\"];\n    mapping(string => uint8) votes;\n\n    function voteFor(string memory _candidate) public {\n        votes[_candidate] += 1;\n    }\n\n    function votesReceived(string memory _candidate) public view returns (uint8) {\n        return votes[_candidate];\n    }\n\n}\n",
  "sourcePath": "/Users/williams/Documents/Zircon/Research/Ethereum/zircon-erc20/contracts/Voting.sol",
  "compiler": {
    "name": "solc",
    "version": "0.8.0+commit.c7dfd78e.Emscripten.clang"
  },
  "schemaVersion": "3.4.1",
  "updatedAt": "2021-06-18T15:24:08.388Z",
  "networkType": "ethereum",
  "devdoc": {
    "kind": "dev",
    "methods": {},
    "version": 1
  },
  "userdoc": {
    "kind": "user",
    "methods": {},
    "version": 1
  }
}